:020000040800F2
:1000000070080020990100087B160008651500089B
:1000100079160008270500080D1C000800000000E4
:10002000000000000000000000000000651700084C
:1000300029050008000000009D1600086717000849
:10004000B3010008B3010008B3010008B3010008C0
:10005000B3010008B3010008B3010008B3010008B0
:10006000B3010008B3010008B3010008B3010008A0
:10007000B3010008B3010008B3010008B301000890
:10008000B3010008B3010008B3010008B301000880
:10009000B3010008B3010008B3010008B301000870
:1000A000B3010008B3010008B3010008B301000860
:1000B00025180008B3010008B3010008B3010008C7
:1000C000B3010008B3010008B3010008B301000840
:1000D000B3010008011C0008B3010008B3010008C7
:1000E000B3010008B3010008B301000800F002F8F2
:1000F00000F043F80AA090E8000C82448344AAF17F
:100100000107DA4501D100F038F8AFF2090EBAE87C
:100110000F0013F0010F18BFFB1A43F0010318473B
:10012000D01D0000F01D0000103A24BF78C878C12F
:10013000FAD8520724BF30C830C144BF04680C60ED
:10014000704700000023002400250026103A28BF35
:1001500078C1FBD8520728BF30C148BF0B60704739
:100160001FB500F07DF904000020002101F09EFE83
:10017000401C60601FBD10B510BD00F04CF9114669
:10018000FFF7EEFF01F06CFD00F07CF903B4FFF720
:10019000F2FF03BC00F0C0F9094880470948004756
:1001A000FEE7FEE7FEE7FEE7FEE7FEE7FEE7FEE727
:1001B000FEE7FEE704480549054A064B7047000084
:1001C000DD170008ED000008700200207008002014
:1001D000700400207004002070B5064600F052F84C
:1001E0000468054630460A22002100F04FF82C60D2
:1001F00070BD032A40F2308010F0030C00F015802F
:1002000011F8013BBCF1020F624498BF11F801CB19
:1002100000F8013B38BF11F8013BA2F1040298BF7E
:1002200000F801CB38BF00F8013B11F0030300F0E8
:100230006580083AC0F0088051F8043B083A51F84C
:1002400004CBA0E80810F5E7121D5CBF51F8043B91
:1002500040F8043BAFF30080D20724BF11F8013B04
:1002600011F801CB48BF11F8012B24BF00F8013B66
:1002700000F801CB48BF00F8012B7047704770476A
:1002800070470000004870470C0200202DE9F0473D
:1002900091460F4680460446002614F8015B2DB1B6
:1002A00000F062F80068405DC007F6D12B2D02D047
:1002B0002D2D18D0641E4A463946204600F05CF8C1
:1002C00027B13968A14201D1C7F800804FF002047C
:1002D00071050BD54042002803DDFFF7D3FF046012
:1002E000A007BDE8F08746F48066E4E70028F8DA66
:1002F000FFF7C8FF04606FF00040F2E710B5203A46
:10030000C0F00B80B1E81850203AA0E81850B1E8CE
:100310001850A0E81850BFF4F5AF5FEA027C24BF84
:10032000B1E81850A0E8185044BF18C918C0BDE87B
:1003300010405FEA827C24BF51F8043B40F8043B44
:1003400008BF7047D20728BF31F8023B48BF11F8F9
:10035000012B28BF20F8023B48BF00F8012B704753
:10036000004870470C02002010B500F079F8001D1D
:1003700010BD00BF391B00002DE9F05F8246154615
:100380008B4600270AF10104B9460078302801D0D5
:100390009DB113E014F8010B0127782803D05828E9
:1003A00001D045B10AE00DB1102D07D1002714F896
:1003B000010B102502E0082500E00A250026B046C2
:1003C0000EE005FB080005FB06F101271FFA80F887
:1003D00001EB1046B6F5803F00D3B94614F8010B87
:1003E000294600F041F80028EBDABBF1000F05D0F8
:1003F0000FB1641E00E05446CBF80040B9F1000F85
:1004000006D0FFF73FFF02210160C81EBDE8F09F44
:1004100048EA0640FAE77546FFF7A2FFAE46050038
:100420006946534620F00700854618B020B5FFF70F
:10043000C1FEBDE820404FF000064FF000074FF02E
:1004400000084FF0000B21F00701AC46ACE8C009F2
:10045000ACE8C009ACE8C009ACE8C0098D467047FB
:10046000004870472C0200203A2800D2303820F093
:100470002002412A01D3A2F13700884201D34FF074
:10048000FF30704710B50446AFF300802046BDE84A
:100490001040FFF77BBE00004FF0013C50F8042BEA
:1004A00051F8043B9A4221D1A2EB0C03934313EA87
:1004B000CC1317D150F8042B51F8043B9A4215D1B4
:1004C000A2EB0C03934313EACC130BD150F8042B8B
:1004D00051F8043B9A4209D1A2EB0C03934313EA6F
:1004E000CC13DBD04FF00000704700BFD01A01BA28
:1004F000B1FA81F101F0180122FA01F0CB40C1F10B
:100500002001DBB2C0B2C01A2CFA01F3D11A914318
:1005100011EAC311E6D1704701491820ABBEFEE7CE
:10052000260002007047FEE77047000010B590F803
:1005300021100024022903D00421816301243DE01D
:1005400001680A6822F00E020A6001680A6822F057
:1005500001020A601A4A0168914201D1012121E099
:10056000174A1432914201D110211BE0144A28325B
:10057000914201D1891515E0114A3C32914201D1D5
:1005800089140FE00E4A5032914202D14FF480316B
:1005900008E00B4A6432914202D14FF4801101E02D
:1005A0004FF08071064A083A5160012180F821100D
:1005B000002180F82010416B01B18847204610BD12
:1005C0000800024070B5044600F0F6F80546601CCD
:1005D00002D004480078044400F0EEF8401BA0422A
:1005E000FAD370BD040000202DE9F84FDFF890A188
:1005F00000220AF1040B144601274FF00F090BF1FA
:10060000040E00BF0B6807FA04F52B40AB4274D10F
:10061000DFF870C14E68A6EB0C0866452BD00DDCE8
:10062000032E34D005DC36B3012E19D0022E2FD183
:100630001BE0112E16D0122E2AD119E0B8F5881F12
:1006400019D006DCB8F5803F15D0B8F5801F1FD152
:1006500011E0B8F5001F0ED0B8F5041F18D10AE05C
:10066000CA6815E0CA68121D12E0CA6808320FE0B5
:10067000CA680C320CE08A682AB1012A4FF00802DD
:1006800003D0456104E0042202E0056100E000229D
:10069000FF2B01D8064601E000F104064FEA84056D
:1006A00001D9A5F12005D6F800C009FA05F82CEA11
:1006B000080C02FA05F54CEA050CC6F800C04D68B6
:1006C000ED0057D5304DAE6946F00106AE61AD691B
:1006D00024F0030605F0010500952C4D06EB050CF2
:1006E000DCF80850A6074FEA167809FA08F6B54371
:1006F000274EB04202D1002610E03BE0254EB0422A
:1007000001D101260AE0244EB04201D1022605E0C3
:10071000224EB04201D1032600E0042606FA08F674
:100720002E43CCF808604D68DAF80060ED035546BA
:1007300001D51E4300E09E432E604D68DBF800604B
:10074000AD035D4601D51E4300E09E432E604D681B
:10075000DEF80060ED02754601D51E4300E09E43C1
:100760002E604D68AD020E4D2E6801D51E4300E08F
:100770009E432E60641C102CFFF444AFBDE8F88F3C
:100780000004014000001110001002400000014070
:1007900000080140000C014000100140001401401D
:1007A0000C040140C2684A40C26070470AB101614E
:1007B00070470904FBE700000148806870470000AB
:1007C000040000200248816802781144816070476B
:1007D00004000020074810B5016841F010010160D5
:1007E000032000F09DF8002000F006F800F024F847
:1007F000002010BD0020024070B50D4D04464FF49E
:100800007A712878B1FBF0F00A490968B1FBF0F081
:1008100000F02DFB48B9102C07D200222146501EB3
:1008200000F05EF800206C6070BD012070BD00001B
:100830000400002010000020214808B5816941F023
:1008400001018161816901F001010091C16941F0FB
:100850008051C161C06900F080500090032000F019
:100860005FF8002211466FF00B0000F039F800220B
:1008700011466FF00A0000F033F8002211466FF0C5
:10088000090000F02DF800221146501F00F028F852
:1008900000221146101F00F023F800221146901E7E
:1008A00000F01EF800221146501E00F019F805480D
:1008B000416821F0E06141F00071416008BD000035
:1008C000001002400000014000F01F020121914091
:1008D0004009800000F1E020C0F8001170470000DE
:1008E000F0B40E4B1B680C46C3F30223C3F107059B
:1008F000042D00D90425191D072901D2002300E089
:10090000DB1E012606FA05F1491E214099409E4052
:10091000761E16403143F0BC00F0B0BE0CED00E096
:10092000064900F0070208684FF6FF03184040EA46
:100930000220034A10430860704700000CED00E0FD
:100940000000FA052DE9F047DFF83C8105460E4628
:10095000D8F8000000F00700B0420CD2D8F8001020
:1009600021F007013143C8F80010D8F8000000F06A
:100970000700B04263D12878444C800705D56068F1
:10098000A96820F0F000084360602878C00745D0CF
:100990006868012816D02168022816D08907002926
:1009A0004DDA616821F0030101436160FFF704FF44
:1009B0006968074641F2883001290FD00229814633
:1009C00019D027E021688903E9E78901E7E700BF3B
:1009D000FFF7F2FEC11B494501D918E08146606866
:1009E000C0F381000128F3D118E000BFFFF7E4FE57
:1009F000C11B49450BD86068C0F381000228F5D1BE
:100A00000CE000BFFFF7D8FEC11B494502D9032007
:100A1000BDE8F087606810F00C0FF3D1D8F8001033
:100A2000404601F00701B1420BD9016821F00701EE
:100A300031430160006800F00700B04201D001209E
:100A4000E6E72878400705D56068E96820F4E060AB
:100A5000084360602878000706D56068296920F49B
:100A6000605040EAC100606000F03CF86168084AEC
:100A7000C1F30311515CC840064908600020FFF72C
:100A8000BBFE0020C4E7000000200240001002402E
:100A9000D81E0008100000200148006870470000C0
:100AA000100000200448054900684968044AC1F361
:100AB0000221515CC8407047100000200010024025
:100AC000E81E00080448054900684968044AC1F363
:100AD000C221515CC8407047100000200010024045
:100AE000E81E000812A185B00FC98DE80F0014A000
:100AF000144A006804905168134801F00C03042B59
:100B000010D0082B0ED1C1F38343C9031DF8030095
:100B10000AD5516804AAC1F34041515C0A4A5043C6
:100B2000B0FBF1F005B0704708494843FAE7000010
:100B300002030405060708090A0B0C0D0E0F10101E
:100B4000010200000010024000127A0000093D007E
:100B50002DE9F84F04460078B94DC00748D06868C1
:100B6000C0F38100012807D06868C0F38100022823
:100B700009D16868C00306D52868800338D5606845
:100B800000286FD034E06068B0F5803F0BD010B122
:100B9000B0F5A02F11D0286820F480302860286894
:100BA00020F4802002E0286840F4803028606068EB
:100BB00088B1FFF701FE064609E0286840F480206E
:100BC0002860F0E7FFF7F8FD801B642875D82868D7
:100BD0008003F7D50CE0FFF7EFFD064605E000BF08
:100BE000FFF7EAFD801B6428F0D828688003F7D45B
:100BF0002078944E80074FF001094FF000083BD554
:100C0000686810F00C0F07D06868C0F381000228F4
:100C100009D16868C00306D42868800714D5206904
:100C200001281FD110E02069B0B1C6F80090FFF78D
:100C3000C3FD074605E000BFFFF7BEFDC01B02284D
:100C4000C4D828688007F7D52868616920F0F800C3
:100C500040EAC10028600FE0C6F80080FFF7ACFD55
:100C6000074606E0E9E000BFFFF7A6FDC01B02282B
:100C700023D828688007F7D4207800072CD572483D
:100C8000A169D9B1C0F80090FFF796FD074604E0CE
:100C9000FFF792FDC01B02280FD8686A8007F7D5BE
:100CA0006A484FF4FA510068B0FBF1F0009000BFC1
:100CB0000098411E0091FAD20EE080E0C0F800805A
:100CC000FFF77AFD074604E0FFF776FDC01B022818
:100CD00075D8686A8007F7D42078400760D5E8693E
:100CE0000027C00008D4E86940F08050E861E86956
:100CF000012700F08050009055480168C90513D4C1
:100D00000168834641F480710160FFF755FD82461A
:100D100006E000BFFFF750FDA0EB0A0064284ED8A4
:100D2000DBF80000C005F5D5E06801280AD008B15D
:100D3000052813D0286A20F001002862286A20F0D4
:100D4000040002E0286A40F001002862E06841F2F5
:100D5000883B98B1FFF730FD82460BE0286A40F0EF
:100D600004002862EEE700BFFFF726FDA0EB0A01B2
:100D700059455AD8286A8007F6D50CE0FFF71CFDC4
:100D8000824605E0FFF718FDA0EB0A0159454CD853
:100D9000286A8007F6D41FB1E86920F08050E86126
:100DA000E06988B36968C1F38101022945D002284E
:100DB000C6F8608004D0FFF7FFFC044638E034E05A
:100DC000FFF7FAFC074604E0FFF7F6FCC01B022819
:100DD0002BD828688001F7D4206AB0F5803F05D170
:100DE0006868A16820F4003008436860D4E908010D
:100DF0000843696821F4741108436860C6F860907C
:100E0000FFF7DAFC044606E015E000BFFFF7D4FC6C
:100E1000001B022809D828688001F7D50BE000BF25
:100E2000FFF7CAFC001B022802D90320BDE8F88F97
:100E300028688001F4D40020F8E70120F6E70000DC
:100E40000010024000004242800442421000002094
:100E5000007000404FF0E0210428086903D020F022
:100E600004000861704740F00400FAE7704710B5CD
:100E7000401EB0F1807F01D3012010BD4FF0E0246F
:100E800060610F21601700F0F9FB0020A0610720CE
:100E90002061002010BD10B5FFF7E8FF10BD7047BE
:100EA000704730B590F83C20012A20D0012280F80C
:100EB0003C20022380F83D3003685C6824F0700415
:100EC0005C6003685C680D682C435C6003689C6828
:100ED00024F080049C6003689C6849680C439C6013
:100EE00080F83D20002180F83C10084630BD0220EB
:100EF00030BD10B5040003D094F83D0010B107E0F8
:100F0000012010BD002084F83C00204600F00CF8C1
:100F1000022084F83D00211D206800F089FC01209A
:100F200084F83D00002010BD08B50068B0F1804F86
:100F300012D10A48C16941F00101C161C0690022B2
:100F400000F00100009011461C20FFF7C9FCBDE82D
:100F500008401C20FFF7B8BC08BD0000001002408C
:100F600070B5044690F83C00012817D0012584F89C
:100F70003C50022084F83D002068826822F077020D
:100F800022F47F4282600868502837D00DDC202888
:100F900059D005DC88B3102841D151E0022070BD42
:100FA000302853D040283AD13FE060282ED0702816
:100FB0000BD0B0F5805F03D0B0F5005F2FD110E00B
:100FC0002068816821F0070115E0CB68D1E9012193
:100FD000206800F063FC2168886840F07700886032
:100FE0001DE0CB68D1E90121206800F057FC2068A2
:100FF000816841F48041816011E01EE0CA6849685F
:10100000206800F05DFC5021206806E0CA6849684D
:10101000206800F066FC6021206800F049FC84F83C
:101020003D50002084F83C0070BDCA6849682068C3
:1010300000F046FC40212068EFE700212068ECE743
:1010400010212068E9E720212068E6E730212068A8
:10105000E3E7704770B50446006801694FF000058A
:10106000C943890715D4C168C943890711D4E91E4A
:10107000016101202077206880698007204602D026
:10108000FFF7E7FF04E000F098F8204600F096F83C
:10109000257720680169C943490717D4C168C94346
:1010A000490713D46FF00401016102202077206802
:1010B000806910F4407F204602D0FFF7CAFF04E0A9
:1010C00000F07BF8204600F079F825772068016968
:1010D000C943090716D4C168C943090712D46FF080
:1010E00008010161042020772068C069800720463C
:1010F00002D0FFF7AEFF04E000F05FF8204600F0FA
:101100005DF8257720680169C943C90617D4C1680D
:10111000C943C90613D46FF010010161082020777C
:101120002068C06910F4407F204602D0FFF791FF8D
:1011300004E000F042F8204600F040F825772068EF
:101140000169C943C90708D1C168C943C90704D1A6
:10115000891E0161204600F033F820680169C94307
:10116000090609D4C168C943090605D46FF0800196
:1011700001612046FFF793FE20680169C9434906D3
:1011800009D4C168C943490605D46FF04001016123
:10119000204600F023F820680169C94389060BD472
:1011A000C168C943890607D46FF020010161204658
:1011B000BDE87040FFF774BE70BD70477047000017
:1011C000044900680968884203D108210248FFF7F2
:1011D000E9BA704714000020000C014070477047C6
:1011E00070B5026804461068D168536910F00F0F9B
:1011F00050D003F0010501F4907635435DD0C2076D
:1012000005D0CA0503D5E26B42F00102E263420752
:1012100005D5DA0703D0E26B42F00202E2638207EF
:1012200005D5DA0703D0E26B42F00402E26302075D
:1012300005D5DA0703D0E26B42F00802E263E26B05
:10124000002A33D0800604D5880602D5204600F057
:1012500070FB20684069E16BC0F38010090700D47F
:1012600028B3204600F057FB2068416949061AD58B
:10127000416921F040014161606BA0B11B494163AC
:10128000606BFFF753F9002810D0606B416BBDE82D
:1012900070400847830610D58B060ED52046BDE862
:1012A000704000F046BB2046FFF799FF70BD204616
:1012B000FFF795FF0020E06370BD030606D50B061F
:1012C00004D52046BDE8704000F036BC4006F3D59A
:1012D0004806F1D5D168204621F04001D160202197
:1012E00084F8391000F03DF970BD000007190008BE
:1012F00070B5040004D094F83900002510B106E060
:10130000012070BD84F83850204600F023F82420D6
:1013100084F839002068C16821F40051C16020467A
:1013200000F052FB2068016921F4904101612068BE
:10133000416921F02A0141612068C16841F40051EE
:10134000C160E563202084F8390084F83A00002069
:1013500070BD000010B50068154986B0884225D1DF
:101360001448816941F4804181618069124C00F424
:10137000804004904FF40070009002200190032000
:10138000039069462046FFF72FF900212015CDE98B
:101390000001029169462046FFF726F90022114616
:1013A0002520FFF79DFA2520FFF78EFA06B010BD25
:1013B00000380140001002400008014090F83A3027
:1013C000202B22D1F9B1F2B190F83830012B1CD08A
:1013D00081628285C2850021C163222280F83A2081
:1013E00080F838100168CA6842F48072CA600168E7
:1013F0004A6942F001024A610068C16841F0200177
:10140000C160002070470120704702207047000033
:1014100030B420490068096888422ED11E48002453
:10142000421C03785B2B10D0014691F86F10491CC9
:1014300049B25D2B80F86F100BD06E2901DB80F86C
:101440006F4090F96F0083541CE080F86F40A35404
:1014500018E06E2901DB80F86F4090F96F108B5413
:101460000E490A780121012A02D10D4A137833B1BD
:101470000C480278002A00D1017030BC70474078D7
:101480005B2805D030BC012203490248FFF796BF14
:101490001170F2E7540000209400002000000020AA
:1014A00002000020010000202DE9F843044690F8D6
:1014B00039001F4616460D46202850D1A5B19EB1D1
:1014C00094F8380001284AD0012084F838004FF001
:1014D0000008C4F83C80212084F83900FFF76CF93B
:1014E000A6848146E68426E00120BDE8F883E08CEE
:1014F000401EE084A0684B46B0F5805F4FF00002CC
:101500004FF080012046009703D000F046FBE8B979
:101510000DE000F042FBC8B928882168C0F308003C
:101520004860206908B16D1C05E0AD1C03E021682E
:1015300015F8010B4860E08C0028D8D14B460022FA
:1015400040212046009700F028FB08B10320CCE79B
:10155000202084F8390084F838800020C5E7022074
:10156000C3E77047FEE700002DE9F043294885B046
:10157000816941F010018161816901F010010491DC
:10158000816941F008018161816901F008010491DC
:10159000816941F0040181618069DFF87C8000F09D
:1015A00004004FF460440490002221464046FFF7B7
:1015B000FDF8DFF868904FF48477002239464846FA
:1015C000FFF7F4F8009401AA01240025022682E81E
:1015D000700069464046FFF707F82003CDE9000593
:1015E000694602944846FEF7FFFF4FF4A070CDE92C
:1015F0000005694602944046FEF7F6FF01AA0097EF
:1016000082E8700069464846FEF7EEFF05B0BDE887
:10161000F08300000010024000100140000C014067
:1016200010B5144886B04FF08041016041F27071EE
:101630000024C0E9011442F20F71C0E903148021B3
:101640008161FFF756FC00B1FEE74FF48050009037
:1016500069460848FFF784FC00B1FEE7049404A93A
:1016600004480594FFF71DFC002800D0FEE706B0F3
:1016700010BD000014000020FEE770470907090EA6
:10168000002806DA00F00F0000F1E02080F8141DB9
:10169000704700F1E02080F80014704770470000A8
:1016A0002DE9F05F2D4D0E4604464FF4004A01220D
:1016B00051462846FFF77AF84FF4807B01225946BD
:1016C0002748FFF773F84FF4804800224146284628
:1016D000FFF76CF86F14002239462846FFF766F8CA
:1016E00046F4885614B1012C04D008E0002251467B
:1016F000284602E0002259461948FFF757F8B94634
:10170000474600244FF6FF78002239462846FFF767
:101710004DF8300401D5012200E000224946284658
:10172000FFF744F8012239462846FFF73FF8641CCA
:10173000E4B208EA4606102CE6D3002239462846D1
:10174000FFF734F8012251462846FFF72FF8594693
:10175000BDE8F05F01220248FFF728B80010014001
:10176000000C0140704710B5FFF72CF8BDE81040A1
:10177000FFF791BB30B58FB0022501200490009592
:101780001020059000244FF45010CDE90840079533
:101790006846FFF7DDF900B1FEE70F20CDE90A0545
:1017A0004FF48060CDE90C4002210AA80E94FFF7A7
:1017B000C9F800B1FEE7FFF76FF94FF47A71B0FB9B
:1017C000F1F0FFF754FB0420FFF744FB0022114621
:1017D000501EFFF785F80FB030BD00000D480168BE
:1017E00041F00101016041680B4A1140416001680C
:1017F0000A4A11400160016821F4802101604168BA
:1018000021F4FE0141604FF41F0181600449C003CF
:1018100008607047001002400000FFF8FFFFF6FE6E
:1018200008ED00E00148FFF715BC0000140000209F
:10183000F0B50268164B174C174D4FF08047984291
:1018400005D0B84203D0A04201D0A84203D122F073
:1018500070064A683243984205D0B84203D0A0428D
:1018600001D0A84203D122F44074CA68224322F076
:1018700080044A69224302608A68C2620A688262FE
:10188000984201D10969016301214161F0BD000065
:10189000002C0140000400400008004010B584689E
:1018A00042EA032224F47F440A432243826010BDAB
:1018B000826822F070020A4342F00701816070479B
:1018C00010B5036A046A24F001040462846924F0F8
:1018D000F00444EA021423F00A020A43846102621B
:1018E00010BD10B5036A23F0100303628369046A14
:1018F00023F4704343EA023224F0A00343EA0111C7
:101900008261016210BD10B5406A0021C185C184A9
:10191000FFF765FC10BD0168CA6822F49072CA60C6
:1019200001684A6922F001024A61202180F83A10D8
:10193000704710B590F83A10222901D0022010BD4E
:101940008168B1F5805F11D00169002901681FD05D
:10195000496801F07F03816A4A1C82620B70C18D65
:10196000491E0904090CC18518D02BE00269816A5F
:10197000002A0268526805D0D2B20A80816A491CE6
:101980008162ECE7C2F308020A80816A891CF7E7EA
:101990004A68816A4B1C83620A70E0E70168CA6882
:1019A00022F02002CA600168CA6822F48072CA600C
:1019B00001684A6922F001024A61202180F83A1048
:1019C000FFF726FD002010BD2DE9F0410446006818
:1019D0000169E26821F44051114301612169A06865
:1019E0000843616908432168CA6841F20C639A435D
:1019F0000243CA6020684169A26921F44071114321
:101A000041614C4920686425322688423CD1FFF769
:101A100059F800EBC00101EB001061688900B0FBD0
:101A2000F1F7FFF74FF800EBC00101EB0010616820
:101A3000B0468900B0FBF1F0B0FBF5F06FF0180193
:101A4000484307EB800106EB0110B0FBF5F000F016
:101A5000F006FFF737F800EBC00101EB00106168FA
:101A60008900B0FBF1F0B0FBF5F006EB0016FFF7D4
:101A700029F800EBC00101EB001061688900B0FBA0
:101A8000F1F7FFF71FF83BE0FFF70CF800EBC001A0
:101A900001EB001061688900B0FBF1F7FFF702F875
:101AA00000EBC00101EB00106168B0468900B0FB9B
:101AB000F1F0B0FBF5F06FF01801484307EB80013F
:101AC00006EB0110B0FBF5F000F0F006FEF7EAFFC0
:101AD00000EBC00101EB001061688900B0FBF1F080
:101AE000B0FBF5F006EB0016FEF7DCFF00EBC001E3
:101AF00001EB001061688900B0FBF1F7FEF7D2FF3F
:101B000000EBC00101EB001061688900B0FBF1F04F
:101B1000B0FBF5F06FF01801484307EB800108EBCC
:101B20000110B0FBF5F0216800F00F003044886030
:101B3000BDE8F0810038014090F83910212901D02A
:101B4000022070478168B1F5805F016A0BD04A1CA2
:101B50000262026809785160C18C491E0904090CAF
:101B6000C1840ED017E009880268C1F308015160F2
:101B700001690029016A02D0491C0162ECE7891C55
:101B8000FBE70168CA6822F08002CA600068C16889
:101B900041F04001C160002070472DE9F0419846B6
:101BA00017460E460446069D1DE0681C1BD02DB14D
:101BB000FEF702FEA0EB0800A84214D92068C16815
:101BC00021F4D071C1602068416921F001014161B7
:101BD000202084F8390084F83A00002084F8380086
:101BE0000320BDE8F0812068006836EA000004D0D8
:101BF0000020B842D9D00020F3E70120F9E7000027
:101C00000148FFF7EDBA000054000020FEE7000095
:101C100070B50E4800250146457001220C48FFF7BB
:101C2000CDFB0C4C0C4E06E008213046FEF7BAFD09
:101C30001420FEF7C7FC20780028F5D02570BDE8F9
:101C400070400249054800F0F1B8000094000020FF
:101C50005400002002000020000C0140560100202A
:101C6000FEF7B8FDFFF786FDFFF77EFCFFF7D8FC17
:101C700062486149002501604FF4E131C0E9011576
:101C80000C21C560C0E904518561C561FFF730FBD7
:101C900000B1FEE75949012240315848FFF78EFB59
:101CA00064230D2256A15548FFF7FEFB584C594FAF
:101CB000257006E008213846FEF774FDC820FEF7BF
:101CC00081FC60780028F5D04C49A570403101F1C5
:101CD000700000F0ABF84949012240314748FFF756
:101CE0006DFB0126267064230C224BA14348FFF7AD
:101CF000DBFBB94606E008214846FEF753FD6420A9
:101D0000FEF760FC60780028F5D03C49A570012200
:101D100040313A48FFF752FBDFF80C813146002092
:101D2000A8F80060FFF7BCFC08F14E070025A7F1FA
:101D3000A00600BFFFF76CFF308C27F815006D1C64
:101D4000EDB2052DF6D30220374FE070A43F43E0FB
:101D500007EB4000B6F92010B0F92000884238DACD
:101D6000B8F800004546A8F800002FE0C1B20020F6
:101D7000FFF796FCFFF74CFFE178B6F9200007EB80
:101D80004101B1F92010411A1AD5E178B6F9203095
:101D900007EB4102B2F92020D31AAAEB02029342C8
:101DA00006DA6B182A7805EB41019A70888310E0F7
:101DB0006A1805EB410182F802A0A1F81CB008E006
:101DC0002988834601F0FF0A491C29802888FF28BA
:101DD000CCD9E078401CE070B97FC0B28142B7D85E
:101DE0004C464FF47A7508212046FEF7DBFC284666
:101DF000FEF7E8FBF7E70000003801405400002040
:101E00005B4144435F5441424C452C305D0000002F
:101E100000000020000C01405B44454255475F45EF
:101E20004E2C315D00000000A80100202DE9FF5F6D
:101E300000224D1C91F96F4093460270012307E088
:101E4000EE5C2C2E02D1521CD2B283545B1CDBB24E
:101E5000A342F5DB521CD2B282778454FF240244A1
:101E600000F120085470044690F91E5001F1010958
:101E7000002617E0A15DA3194A1C5B78D2B2591A5B
:101E8000491ECFB2EA4609EB02013A465046FEF738
:101E9000B0F90AF807B06846FEF79EF928F8160070
:101EA000761CF6B2AE42E5DBBDE8FF9F10B5002917
:101EB0000AD00878002807D005487844FEF7ECFAE5
:101EC000002801D0002010BD0248784410BD000059
:101ED000560000004E00000000000000000000005E
:101EE00001020304060708090000000001020304C0
:101EF0002020000800000020140000002801000835
:101F000034200008140000205C0800004401000890
:101F10001001000043000000F8FFFFFF00404040B8
:101F200040404040404041414141414040404040AC
:101F30004040404040404040404040404005020258
:101F40000202020202020202020202020220202017
:101F50002020202020202002020202020202909073
:101F60009090909010101010101010101010101071
:101F700010101010101010100202020202028888C5
:101F800088888888080808080808080808080808D1
:101F900008080808080808080202020240000000B9
:101FA0000000000000000000000000000000000031
:101FB0000000000000000000000000000000000021
:101FC0000000000000000000000000000000000011
:101FD0000000000000000000000000000000000001
:101FE00000000000000000000000000000000000F1
:101FF00000000000000000000000000000000000E1
:1020000000000000000000000000000000000000D0
:1020100000000000000000000000000000000000C0
:10202000000000000100000010000000000000009F
:0420300000A24A04BC
:04000005080000ED02
:00000001FF
